:020000040000FA
:1000000068020010650100006D0100006F01000032
:1000100000000000000000000000000000000000E0
:10002000000000000000000000000000710100005E
:1000300000000000000000007301000075010000D6
:1000400077010000770100007701000077010000D0
:1000500077010000770100007701000077010000C0
:1000600077010000770100007701000077010000B0
:1000700077010000770100007701000077010000A0
:100080007701000077010000770100007701000090
:100090007701000077010000770100007701000080
:1000A0007701000077010000770100007701000070
:1000B0007701000077010000770100007701000060
:1000C00000F002F800F03EF80CA030C80838241800
:1000D0002D18A246671EAB4654465D46AC4201D180
:1000E00000F030F87E460F3E0FCCB6460126334274
:1000F00000D0FB1AA246AB4633431847180600004F
:1001000038060000103A02D378C878C1FAD85207EE
:1001100001D330C830C101D504680C6070470000BD
:100120000023002400250026103A01D378C1FBD813
:10013000520700D330C100D50B6070471FB51FBDFB
:1001400010B510BD00F0DCF81146FFF7F7FF00F026
:1001500039FA00F0F4F803B4FFF7F2FF03BC00F043
:10016000FBF800000748804707480047FEE7FEE726
:10017000FEE7FEE7FEE7FEE704480549034A054BB4
:1001800070470000C5040000C100000068000010B6
:100190006802001068000010002203098B422CD373
:1001A000030A8B4211D300239C464EE003460B43C7
:1001B0003CD4002243088B4231D303098B421CD329
:1001C000030A8B4201D394463FE0C3098B4201D31B
:1001D000CB01C01A524183098B4201D38B01C01A53
:1001E000524143098B4201D34B01C01A52410309CA
:1001F0008B4201D30B01C01A5241C3088B4201D379
:10020000CB00C01A524183088B4201D38B00C01A25
:10021000524143088B4201D34B00C01A5241411A4C
:1002200000D201465241104670475DE0CA0F00D02F
:100230004942031000D34042534000229C46030928
:100240008B422DD3030A8B4212D3FC22890112BAAE
:10025000030A8B420CD3890192118B4208D3890186
:1002600092118B4204D389013AD0921100E089099E
:10027000C3098B4201D3CB01C01A524183098B427F
:1002800001D38B01C01A524143098B4201D34B0168
:10029000C01A524103098B4201D30B01C01A5241CB
:1002A000C3088B4201D3CB00C01A524183088B4252
:1002B00001D38B00C01A5241D9D243088B4201D3DB
:1002C0004B00C01A5241411A00D2014663465241C6
:1002D0005B10104601D34042002B00D549427047C5
:1002E00063465B1000D3404201B50020C046C046C3
:1002F00002BD70477047704770470000FFFFFFFF67
:10030000754600F025F8AE46050069465346C0081C
:10031000C000854618B020B5FFF72EFF60BC00274F
:100320004908B6460026C0C5C0C5C0C5C0C5C0C5C1
:10033000C0C5C0C5C0C5403D49008D46704710B519
:100340000446C046C0462046FFF705FF10BD00002A
:10035000004870470400001001491820ABBEFEE7BA
:10036000260002005348006801210904084351494E
:10037000086051488068C008C0004F49886008463E
:10038000806AC008C00088624B484030C069C0081D
:10039000C00049494031C86147488030C068C00842
:1003A000C00045498031C860434840300068C008FB
:1003B000C00041494031086008464068C008C0009C
:1003C00048603D480068C008C0003B4908600846D6
:1003D000006AC008C00008623648006801210904AC
:1003E0008843344908600846006840210843314981
:1003F00008603248006801210843304908603048ED
:10040000C06B012108432E49C8632C4800680221B3
:1004100008432A4908602A48C06B0221084328493A
:10042000C86326480068042108432449086024481A
:10043000C06B042108432249C86320480068082192
:1004400008431E4908601E48C06B082108431C4928
:10045000C8631A4800681021084318490860184802
:10046000C06B102108431649C86314480068202156
:100470000843124908601248C06B20210843104904
:10048000C8630E480068402108430C4908600C48C6
:10049000C06B402108430A49C863084800688021AE
:1004A0000843064908600648C06B80210843044998
:1004B000C8637047808004400040044000800250C0
:1004C000C03F025008B52548806B2021884323494E
:1004D0008863002022490862009003E000BF009872
:1004E000401C00900098C828F8D301201C494031D6
:1004F00008604860002048600120486000BF18483C
:1005000040304068C007C00F0028F8D023201449AD
:1005100088601248806B802188431049886300BF3F
:100520000F48C068C007C00F0028F9D003200C494D
:10053000403108630120486300204863012048637C
:1005400000BF07484030406BC007C00F0028F8D0FC
:10055000012003494031886308BD00000082044047
:100560000080044010B5044602200B49486000207A
:10057000C860FF21F53109480068FFF70DFE6043B0
:10058000054988610120486000BF03484068C007F2
:10059000C00F0028F9D110BD0080014000000010FC
:1005A00006480068012189020843044908600120C7
:1005B00003490860042048617047000080800440BF
:1005C00000800140FFF7CEFEFFF7EAFF9FE0FF202B
:1005D000F530FFF7C7FF4E48C06B400840004C495C
:1005E000C863FF20F530FFF7BDFF4948C06B01210C
:1005F00008434749C863FF20F530FFF7B3FF44487D
:10060000C06B022188434249C863FF20F530FFF7E1
:10061000A9FF3F48C06B022108433D49C863FF2042
:10062000F530FFF79FFF3A48C06B042188433849F3
:10063000C863FF20F530FFF795FF3548C06B0421F4
:1006400008433349C863FF20F530FFF78BFF30487C
:10065000C06B082188432E49C863FF20F530FFF79F
:1006600081FF2B48C06B082108432949C863FF203C
:10067000F530FFF777FF2648C06B102188432449E7
:10068000C863FF20F530FFF76DFF2148C06B1021D4
:1006900008431F49C863FF20F530FFF763FF1C487C
:1006A000C06B202188431A49C863FF20F530FFF74B
:1006B00059FF1748C06B202108431549C863FF2024
:1006C000F530FFF74FFF1248C06B402188431049B7
:1006D000C863FF20F530FFF745FF0D48C06B402190
:1006E00008430B49C863FF20F530FFF73BFF08487C
:1006F000C06B802188430649C863FF20F530FFF7AF
:1007000031FF0348C06B802108430149C8635EE79D
:10071000C03F025034070000000000100400000039
:10072000040100003807000004000010640200000B
:0807300020010000006CDC0256
:04000005000000C136
:00000001FF
